S01800004763634170706C69636174696F6E31332E7372656327
S11300000C942A000C943F000C943F000C943F0085
S11300100C943F000C943F000C943F000C943F0060
S11300200C943F000C943F000C943F000C943F0050
S11300300C943F000C943F000C943F000C943F0040
S11300400C943F000C943F000C943F000C943F0030
S11300500C943F0011241FBECFE5D8E0DEBFCDBF16
S113006010E0A0E6B0E0ECE8F4E002C005900D92E8
S1130070AA37B107D9F70E9441000C9444020C94AA
S113008000000E94D7010E944E000E9414028F3F7C
S1130090E1F3682F83E00E945300F7CF61E083E02F
S11300A00E94760008950F931F93CF93DF93082F38
S11300B0E62FF0E0E05AFF4F1081C0E0D0E00EC020
S11300C0412F50E00C2E02C0559547950A94E2F753
S11300D041706C2F802F0E940E012196C830D105EB
S11300E07CF3DF91CF911F910F9108956130A1F4BA
S11300F0813049F028F0823049F0833051F008957E
S11301008FEF8ABB08958FEF87BB08958FEF84BB71
S113011008958FEF81BB089561110FC0813041F0C4
S113012028F0823039F0833039F008951ABA0895EE
S113013017BA089514BA089511BA08954130A1F573
S1130140813089F028F08230C9F0833011F10895AC
S11301502AB381E090E002C0880F991F6A95E2F704
S1130160822B8ABB089527B381E090E002C0880FF8
S1130170991F6A95E2F7822B87BB089524B381E027
S113018090E002C0880F991F6A95E2F7822B84BB26
S1130190089521B381E090E002C0880F991F6A9509
S11301A0E2F7822B81BB0895411137C0813091F071
S11301B028F08230D9F0833029F108952AB381E000
S11301C090E002C0880F991F6A95E2F78095822318
S11301D08ABB089527B381E090E002C0880F991F7D
S11301E06A95E2F78095822387BB089524B381E062
S11301F090E002C0880F991F6A95E2F780958223E8
S113020084BB089521B381E090E002C0880F991F58
S11302106A95E2F78095822381BB08954130A1F568
S1130220813089F028F08230C9F0833011F10895CB
S11302302BB381E090E002C0880F991F6A95E2F722
S1130240822B8BBB089528B381E090E002C0880F15
S1130250991F6A95E2F7822B88BB089525B381E044
S113026090E002C0880F991F6A95E2F7822B85BB44
S1130270089522B381E090E002C0880F991F6A9527
S1130280E2F7822B82BB0895411137C0813091F08F
S113029028F08230D9F0833029F108952BB381E01E
S11302A090E002C0880F991F6A95E2F78095822337
S11302B08BBB089528B381E090E002C0880F991F9A
S11302C06A95E2F78095822388BB089525B381E07F
S11302D090E002C0880F991F6A95E2F78095822307
S11302E085BB089522B381E090E002C0880F991F76
S11302F06A95E2F78095822382BB0895813081F06C
S113030028F08230B9F08330F9F027C089B390E047
S113031002C0959587956A95E2F7982F91701DC054
S113032086B390E002C0959587956A95E2F7982F79
S1130330917013C083B390E002C0959587956A9538
S1130340E2F7982F917009C080B390E002C09595B0
S113035087956A95E2F7982F9170892F08956130F7
S1130360A1F4813049F028F0823049F0833051F013
S113037008958FEF8BBB08958FEF88BB08958FEF9F
S113038085BB08958FEF82BB089561110FC0813042
S113039041F028F0823039F0833039F008951BBAE7
S11303A0089518BA089515BA089512BA089540E048
S11303B060E082E00E949E0040E061E082E00E94F2
S11303C09E0040E062E082E00E949E0040E063E024
S11303D082E00E949E0041E064E082E00E949E0070
S11303E041E065E082E00E949E0041E066E082E038
S11303F00E949E0041E067E082E00E949E0041E08E
S113040060E082E00E940E0141E061E082E00E942F
S11304100E0141E062E082E00E940E0141E063E0EF
S113042082E00E940E010895CF93DF93D4E026C0AA
S113043061E082E00E94AF0140E06D2F82E00E9403
S11304400E01C0E018C06C2F82E00E947E01811171
S113045011C08C2F90E02D2F30E024503109880FEB
S1130460991F880F991F86599F4FFC01E20FF31FB4
S1130470808107C0CF5FC43030F3DF5FD830C0F273
S10F04808FEFDF91CF910895F894FFCF27
S113048C3F065B4F666D7D077F6F070809430405C4
S10D049C0642010203412A00234432
S9030000FC
