S01800004763634170706C69636174696F6E31332E7372656327
S11300000C942A000C9434000C9434000C943400A6
S11300100C9434000C9434000C9434000C9434008C
S11300200C9434000C9434000C9434000C9434007C
S11300300C9434000C9434000C9434000C9434006C
S11300400C9434000C9434000C9434000C9434005C
S11300500C94340011241FBECFE5D8E0DEBFCDBF21
S11300600E9436000C94EE010C94000060E080E0E5
S11300700E94B50041E060E082E00E94DD0041E0C2
S113008061E082E00E94DD0041E062E082E00E94E3
S1130090DD0041E060E080E00E944D0141E061E06C
S11300A080E00E944D0141E062E080E00E944D0149
S11300B041E067E080E00E944D0160E080E00E9442
S11300C0BD01811106C041E060E082E00E944D0163
S11300D011C067E080E00E94BD01811106C041E0CB
S11300E060E082E00E944D0105C040E060E082E0F3
S11300F00E944D0161E080E00E94BD01811106C0B3
S113010041E061E082E00E944D0111C067E080E0BF
S11301100E94BD01811106C041E061E082E00E94BD
S11301204D0105C040E061E082E00E944D0162E0C3
S113013080E00E94BD01811106C041E062E082E0DE
S11301400E944D01BACF67E080E00E94BD01811199
S113015006C041E062E082E00E944D01AECF40E083
S113016062E082E00E944D01A8CF6130A1F48130A9
S113017049F028F0823049F0833051F008958FEF30
S11301808ABB08958FEF87BB08958FEF84BB0895D2
S11301908FEF81BB089561110FC0813041F028F0C9
S11301A0823039F0833039F008951ABA089517BAB5
S11301B0089514BA089511BA08954130A1F5813013
S11301C089F028F08230C9F0833011F108952AB300
S11301D081E090E002C0880F991F6A95E2F7822BB4
S11301E08ABB089527B381E090E002C0880F991F6D
S11301F06A95E2F7822B87BB089524B381E090E0EF
S113020002C0880F991F6A95E2F7822B84BB089578
S113021021B381E090E002C0880F991F6A95E2F74C
S1130220822B81BB0895411137C0813091F028F0B1
S11302308230D9F0833029F108952AB381E090E027
S113024002C0880F991F6A95E2F7809582238ABBC2
S1130250089527B381E090E002C0880F991F6A9542
S1130260E2F78095822387BB089524B381E090E070
S113027002C0880F991F6A95E2F78095822384BB98
S1130280089521B381E090E002C0880F991F6A9518
S1130290E2F78095822381BB08954130A1F5813036
S11302A089F028F08230C9F0833011F108952BB31E
S11302B081E090E002C0880F991F6A95E2F7822BD3
S11302C08BBB089528B381E090E002C0880F991F8A
S11302D06A95E2F7822B88BB089525B381E090E00C
S11302E002C0880F991F6A95E2F7822B85BB089597
S11302F022B381E090E002C0880F991F6A95E2F76B
S1130300822B82BB0895411137C0813091F028F0CF
S11303108230D9F0833029F108952BB381E090E045
S113032002C0880F991F6A95E2F7809582238BBBE0
S1130330089528B381E090E002C0880F991F6A9560
S1130340E2F78095822388BB089525B381E090E08D
S113035002C0880F991F6A95E2F78095822385BBB6
S1130360089522B381E090E002C0880F991F6A9536
S1130370E2F78095822382BB0895813081F028F0D2
S11303808230B9F08330F9F027C089B390E002C01D
S1130390959587956A95E2F7982F91701DC086B35D
S11303A090E002C0959587956A95E2F7982F917031
S11303B013C083B390E002C0959587956A95E2F7E0
S11303C0982F917009C080B390E002C095958795ED
S11303D06A95E2F7982F9170892F0895F894FFCFCA
S9030000FC
