S01800004763634170706C69636174696F6E31332E7372656327
S11300000C946F000C948C000C948C000C948C0059
S11300100C948C000C948C000C948C000C948C002C
S11300200C948C000C948C000C948C000C948C001C
S11300300C948C000C948C000C948C000C948C000C
S11300400C948C000C948C000C948C000C948C00FC
S11300500C948C008D018D018D018D018D018D011C
S11300608D018D018D018D01720372037203720380
S113007072037203720372037203720372037203D4
S113008072037203720372037203720372037203C4
S11300907203720372037203720304037203720322
S11300A072037203720372036703720372037203AF
S11300B07203720372037203720372037203720394
S11300C07203720372037203720372037203720384
S11300D07203720372039C01F6015002AA021124F6
S11300E01FBECFE5D8E0DEBFCDBF10E0A0E6B0E094
S11300F0E8E6FBE002C005900D92A237B107D9F7FC
S113010020E0A2E7B0E001C01D92A637B207E1F7F4
S11301100E948E000C94B2050C9400000E9493007F
S11301200E947B01FDCF0E94D5048BE49DE10197E1
S1130130F1F700C0000041E060E081E00E949C0310
S113014041E061E081E00E949C0341E062E081E0E3
S11301500E949C0361E080E00E94740341E060E03F
S113016081E00E940C0440E061E081E00E940C0404
S113017040E062E081E00E940C0460E080E00E94C4
S1130180AD0441E064E080E00E940C0441E065E0DD
S113019080E00E940C0489EF90E00197F1F700C021
S11301A0000040E060E081E00E940C049DE09A952C
S11301B0F1F7000041E060E081E00E940C0440E0BF
S11301C064E080E00E940C0440E065E080E00E946E
S11301D00C0441E063E080E00E940C0441E062E032
S11301E080E00E940C0441E061E080E00E940C0485
S11301F041E060E080E00E940C0489EF90E0019708
S1130200F1F700C0000040E060E081E00E940C04CF
S11302109DE09A95F1F7000041E060E081E00E94E2
S11302200C0460E080E00E94AD0441E060E080E006
S11302300E940C0441E060E081E00E940C0489EF1C
S113024090E00197F1F700C0000040E060E081E039
S11302500E940C0483EF91E00197F1F700C00000C5
S113026008958BBB41E062E081E00E940C0440E011
S113027061E081E00E940C0441E060E081E00E94C2
S11302800C0489EF90E00197F1F700C0000040E012
S113029060E081E00E940C049DE09A95F1F7000073
S11302A00895CF93DF93EC0103C00E94310121969E
S11302B088818111FACFDF91CF910895CF93DF9395
S11302C0CDB7DEB72C970FB6F894DEBF0FBECDBF07
S11302D04AE0BE016F5F7F4F0E947D05CE0101960B
S11302E00E9451012C960FB6F894DEBF0FBECDBF0D
S11302F0DF91CF910895CF930E941205C82F082E45
S1130300000C990BAA0BBB0B8534910508F0EAC1CC
S1130310FC01E65DFF4F0C94630580E38C0F0E94A3
S1130320310180917500880F982F990F990F890FCB
S1130330C80FC0937500D6C180916000882351F026
S11303408091750090E090937400809373001092F4
S1130350600043C080917200843469F42091750078
S11303608091730090917400820F911D909374009A
S11303708093730032C0813469F4209175008091B8
S1130380730090917400821B910990937400809380
S1130390730023C0823481F440917500209173006E
S11303A030917400429FC001439F900D112490939B
S11303B074008093730011C0833479F460917500E4
S11303C0662359F070E080917300909174000E944C
S11303D04F0570937400609373008DE20E943101A5
S11303E081E480937200109275007CC1809160005A
S11303F0882351F08091750090E09093740080936D
S113040073001092600043C080917200843469F4D8
S1130410209175008091730090917400820F911D5A
S1130420909374008093730032C0813469F42091F6
S113043075008091730090917400821B91099093D0
S113044074008093730023C0823481F4409175005A
S11304502091730030917400429FC001439F900D1E
S11304601124909374008093730011C0833479F441
S113047060917500662359F070E08091730090914B
S113048074000E944F05709374006093730088E7B2
S11304900E94310182E4809372001092750022C19F
S11304A080916000882351F08091750090E09093D2
S11304B07400809373001092600043C080917200B6
S11304C0843469F4209175008091730090917400D4
S11304D0820F911D909374008093730032C0813415
S11304E069F4209175008091730090917400821BCF
S11304F09109909374008093730023C0823481F433
S1130500409175002091730030917400429FC001A6
S1130510439F900D1124909374008093730011C035
S1130520833479F460917500662359F070E080910A
S11305307300909174000E944F057093740060934F
S113054073008FE20E94310183E480937200109261
S11305507500C8C080916000882351F080917500B7
S113056090E090937400809373001092600043C0F5
S113057080917200843469F4209175008091730035
S113058090917400820F911D909374008093730076
S113059032C0813469F42091750080917300909188
S11305A07400821B9109909374008093730023C09C
S11305B0823481F44091750020917300309174006D
S11305C0429FC001439F900D112490937400809327
S11305D0730011C0833479F460917500662359F077
S11305E070E080917300909174000E944F057093A5
S11305F07400609373008BE20E94310184E4809361
S11306007200109275006EC08DE30E9431018091DA
S11306107200843469F42091750080917300909184
S11306207400820F911D909374008093730032C004
S1130630813469F420917500809173009091740065
S1130640821B9109909374008093730023C08234B9
S113065081F4409175002091730030917400429FA1
S1130660C001439F900D11249093740080937300F4
S113067011C0833479F460917500662359F070E0F9
S113068080917300909174000E944F0570937400E0
S1130690609373008091730090917400992374F4B3
S11306A08DE20E94310180917300909174009195C4
S11306B081959109909374008093730080917300E5
S11306C0909174000E945E01109275000BC00E940C
S11306D09300109274001092730081E08093600084
S11306E010927200CF9108956130A1F4813049F0E5
S11306F028F0823049F0833051F008958FEF8ABB9F
S113070008958FEF87BB08958FEF84BB08958FEF13
S113071081BB089561110FC0813041F028F082300F
S113072039F0833039F008951ABA089517BA089544
S113073014BA089511BA08954130A1F5813089F0B1
S113074028F08230C9F0833011F108952AB381E092
S113075090E002C0880F991F6A95E2F7822B8ABB4A
S1130760089527B381E090E002C0880F991F6A952D
S1130770E2F7822B87BB089524B381E090E002C0A6
S1130780880F991F6A95E2F7822B84BB089521B3E1
S113079081E090E002C0880F991F6A95E2F7822BEE
S11307A081BB0895411137C0813091F028F0823027
S11307B0D9F0833029F108952AB381E090E002C092
S11307C0880F991F6A95E2F7809582238ABB089562
S11307D027B381E090E002C0880F991F6A95E2F781
S11307E08095822387BB089524B381E090E002C002
S11307F0880F991F6A95E2F78095822384BB089538
S113080021B381E090E002C0880F991F6A95E2F756
S11308108095822381BB08954130A1F5813089F010
S113082028F08230C9F0833011F108952BB381E0B0
S113083090E002C0880F991F6A95E2F7822B8BBB68
S1130840089528B381E090E002C0880F991F6A954B
S1130850E2F7822B88BB089525B381E090E002C0C3
S1130860880F991F6A95E2F7822B85BB089522B3FE
S113087081E090E002C0880F991F6A95E2F7822B0D
S113088082BB0895411137C0813091F028F0823045
S1130890D9F0833029F108952BB381E090E002C0B0
S11308A0880F991F6A95E2F7809582238BBB089580
S11308B028B381E090E002C0880F991F6A95E2F79F
S11308C08095822388BB089525B381E090E002C01F
S11308D0880F991F6A95E2F78095822385BB089556
S11308E022B381E090E002C0880F991F6A95E2F775
S11308F08095822382BB0895813081F028F0823074
S1130900B9F08330F9F027C089B390E002C095951F
S113091087956A95E2F7982F91701DC086B390E091
S113092002C0959587956A95E2F7982F917013C048
S113093083B390E002C0959587956A95E2F7982F66
S1130940917009C080B390E002C0959587956A952F
S1130950E2F7982F9170892F08956130A1F48130C6
S113096049F028F0823049F0833051F008958FEF38
S11309708BBB08958FEF88BB08958FEF85BB0895D7
S11309808FEF82BB089561110FC0813041F028F0D0
S1130990823039F0833039F008951BBA089518BABB
S11309A0089515BA089512BA089540E060E082E00F
S11309B00E949C0340E061E082E00E949C0340E0CE
S11309C062E082E00E949C0340E063E082E00E94D7
S11309D09C0341E064E082E00E949C0341E065E006
S11309E082E00E949C0341E066E082E00E949C0356
S11309F041E067E082E00E949C0341E060E082E025
S1130A000E940C0441E061E082E00E940C0441E099
S1130A1062E082E00E940C0441E063E082E00E9414
S1130A200C040895CF93DF93D4E033C061E082E0F7
S1130A300E94AD0440E06D2F82E00E940C04C0E0EF
S1130A4025C06C2F82E00E947C0481111EC087E8BF
S1130A5093E10197F1F700C000006C2F82E00E943F
S1130A607C048823D1F38D2F90E09C01245031091C
S1130A708C2F90E0880F991F880F991F8F599F4FD3
S1130A80FC01E20FF31F808107C0CF5FC430C8F2BE
S1130A90DF5FD83058F28FEFDF91CF91089597FB45
S1130AA0072E16F4009407D077FD09D00E9469053B
S1130AB007FC05D03EF4909581959F4F089570955D
S1130AC061957F4F0895EE0FFF1F0590F491E02D7F
S1130AD00994AA1BBB1B51E107C0AA1FBB1FA61781
S1130AE0B70710F0A61BB70B881F991F5A95A9F7D3
S1130AF080959095BC01CD010895BB274A3031F40F
S1130B00992322F4BDE2909581959F4F0C94890519
S1130B10BB27FB015527AA27880F991FAA1FA417D3
S1130B2010F0A41B83955051B9F7A05DAA3308F0C7
S1130B30A95DA193009779F7B111B1931192CB01FB
S1130B400C94A205DC01FC01672F71917723E1F776
S1130B50329704C07C916D9370836291AE17BF0786
S10B0B60C8F30895F894FFCFD7
S1130B68010708094304050642010203412A002338
S1050B78440033
S9030000FC
