S01800004763634170706C69636174696F6E31332E7372656327
S11300000C942A000C943F000C943F000C943F0085
S11300100C943F000C943F000C943F000C943F0060
S11300200C943F000C943F000C943F000C943F0050
S11300300C943F000C943F000C943F000C943F0040
S11300400C943F000C943F000C943F000C943F0030
S11300500C943F0011241FBECFE5D8E0DEBFCDBF16
S113006010E0A0E6B0E0EAE9F2E002C005900D92EB
S1130070A436B107D9F70E9441000C944B010C94AB
S113008000000E94DF0080E00E94E400FCCF6130A9
S1130090A1F4813049F028F0823049F0833051F0E6
S11300A008958FEF8ABB08958FEF87BB08958FEF74
S11300B084BB08958FEF81BB089561110FC0813017
S11300C041F028F0823039F0833039F008951ABABB
S11300D0089517BA089514BA089511BA08954130CD
S11300E0A1F5813089F028F08230C9F0833011F114
S11300F008952BB381E090E002C0880F991F6A95A0
S1130100E2F7822B8BBB089528B381E090E002C014
S1130110880F991F6A95E2F7822B88BB089525B34F
S113012081E090E002C0880F991F6A95E2F7822B64
S113013085BB089522B381E090E002C0880F991F27
S11301406A95E2F7822B82BB0895411137C0813052
S113015091F028F08230D9F0833029F108952BB33F
S113016081E090E002C0880F991F6A95E2F78095BC
S113017082238BBB089528B381E090E002C0880FEE
S1130180991F6A95E2F78095822388BB089525B369
S113019081E090E002C0880F991F6A95E2F780958C
S11301A0822385BB089522B381E090E002C0880FCA
S11301B0991F6A95E2F78095822382BB089561E0D6
S11301C082E00E94470008950F931F93CF93DF931B
S11301D0882361F103E010E057C0E801C05ADF4F03
S11301E04881417063E082E00E946F004881469537
S11301F0417062E082E00E946F00488142FB442724
S113020040F961E082E00E946F00488143FB44278B
S113021040F960E082E00E946F0087EA91E601976E
S1130220F1F700C000000F5F1F4F02C000E010E0B4
S11302300430110594F22AC0E801C05ADF4F488106
S1130240417063E082E00E946F00488146954170EE
S113025062E082E00E946F00488142FB442740F93B
S113026061E082E00E946F00488143FB442740F92B
S113027060E082E00E946F0087EA91E60197F1F75F
S113028000C00000015011091123B4F6DF91CF9191
S10D02901F910F910895F894FFCF19
S107029A0301030253
S9030000FC
